:10000000E87F0100ED010000F501000000000000A4
:1000100000000000000000000000000000000000E0
:10002000000000000000000000000000F9010000D6
:100030000000000000000000FB010000E5020100DC
:10004000FF010000FF010000FF010000FF010000B0
:10005000FF010000FF010000FF010000FF010000A0
:10006000FF010000FF010000FF010000FF01000090
:10007000E5560000FF010000FF010000A557000049
:10008000CD570000D157000005580000FF010000C7
:100090000958000015580000D95800000D590000FB
:1000A000395900003B5900003D5900003F590000FC
:1000B0003F590000415900004359000045590000D4
:1000C000DEC0ADDE000369001699FF0000000000ED
:1000D0004A756E20313220323032340031303A35B8
:1000E000333A35317C2F0100A52F01003A3201004F
:1000F0008E320100D7320100ED320100FB320100E7
:10010000090100000143D100003835585829330156
:10011000003333010083330100BE340100F13401A8
:100120000006350100CEFAAD0B00000000F002F829
:1001300000F030F80CA030C8083824182D18A2465A
:10014000671EAB4654465D46AC4201D100F022F832
:100150007E460F3E0FCCB6460126334200D0FB1A36
:10016000A246AB4633431847A4350100C43501000D
:100170000023002400250026103A01D378C1FBD8C3
:10018000520700D330C100D50B6070471FB51FBDAB
:1001900010B510BD00F0A8FA1146FFF7F7FF12F0F6
:1001A0001BFD00F0C0FA03B4FFF7F2FF03BC00F040
:1001B000C7FA000070B505460C46164602E00FCCA3
:1001C0000FC5103E102EFAD2082E02D303CC03C561
:1001D000083E042E07D301CC01C5361F03E0217869
:1001E0002970641C6D1C761EF9D270BD07488047CB
:1001F00007480047FEE7FEE7FEE7FEE7FEE7FEE70B
:1002000004480549034A054B70470000910301006B
:100210002D010000E87B0100E87F0100E87B010080
:1002200010B5202A04DB0146203A9140002010BD81
:10023000914020239C1A0346E3401943904010BD8F
:1002400010B5202A04DB0846203AD040002110BD1A
:100250000B462024D340D040A21A914008431946AF
:1002600010BD4343514330B55C18010C130C0D46CF
:1002700092B25D4380B251432C19054655430A0C96
:1002800009044D1962415843010C000440195141C1
:1002900030BD70B500252C46AD1A9C4112DA002500
:1002A0002C462D1A8C4102DA00F02BF870BD002488
:1002B00040428C41214600F024F8002440428C4109
:1002C000214619E000252C462D1A8C410ADA00241B
:1002D00052429C41234600F014F8002440428C41D5
:1002E000214670BD002452429C41404223460024D6
:1002F0008C41214600F005F8002452429C412346DF
:1003000070BDFEB5054610460C46184373D0AE4688
:100310008C460020AD1A01469C4167D366460027F3
:1003200001243D46B61A9D4102D313463A46212484
:10033000654676462F04360C3E432D0CB61A9D4179
:1003400004D3150C1B042B43120410346546764667
:100350002F06360A3E432D0AB61A9D4104D3150EC8
:100360001B022B4312020834654676462F073609D6
:100370003E432D09B61A9D4104D3150F1B012B4393
:100380001201241D65467646AF07B6083E43AD0808
:10039000B61A9D4104D3950F9B002B439200A41CD9
:1003A00065467646EF0776083E436D08B61A9D41CE
:1003B0001AD392185B41641C16E000187646654615
:1003C0004941B71A9D410191009009D36046B11A85
:1003D00098418E468446009801990025401C694149
:1003E000DD0752082A435B08641EE6D57246634661
:1003F00003B0F0BDFFE700200146C046C0462A46D4
:100400002346F5E7F8B5042A2CD3830712D00B78DE
:10041000491C0370401C521E83070BD00B78491CEB
:100420000370401C521E830704D00B78491C0370D4
:10043000401C521E8B079B0F05D0C91ADF002023DA
:10044000DE1B08C90AE0FFF7B5FEF8BD1D4608C966
:10045000FD401C46B4402C4310C0121F042AF5D2A4
:10046000F308C91A521EF0D40B78491C0370401CC3
:10047000521EEAD40B78491C0370401C012AE4D4B4
:1004800009780170F8BDD2B210B513029A1813049E
:100490009A1800F00EF810BD01E004C0091F0429ED
:1004A000FBD28B0701D50280801CC90700D00270E7
:1004B000704700290BD0C30702D00270401C491EB0
:1004C000022904D3830702D50280801C891EE3E73A
:1004D0000022EEE70022DFE70378C278194643786E
:1004E00012061B0219438378C0781B041943114379
:1004F0000902090A000608437047002203098B42DB
:1005000073D3030A8B4258D3030B8B423CD3030CA7
:100510008B4221D312E003460B437FD400224308D1
:100520008B4274D303098B425FD3030A8B4244D3BB
:10053000030B8B4228D3030C8B420DD3FF220902FD
:1005400012BA030C8B4202D31212090265D0030BBC
:100550008B4219D300E0090AC30B8B4201D3CB03B2
:10056000C01A5241830B8B4201D38B03C01A5241F4
:10057000430B8B4201D34B03C01A5241030B8B42F6
:1005800001D30B03C01A5241C30A8B4201D3CB02E1
:10059000C01A5241830A8B4201D38B02C01A5241C6
:1005A000430A8B4201D34B02C01A5241030A8B42C9
:1005B00001D30B02C01A5241CDD2C3098B4201D3E1
:1005C000CB01C01A524183098B4201D38B01C01A5F
:1005D000524143098B4201D34B01C01A52410309D6
:1005E0008B4201D30B01C01A5241C3088B4201D385
:1005F000CB00C01A524183088B4201D38B00C01A32
:10060000524143088B4201D34B00C01A5241411A58
:1006100000D201465241104670475DE0CA0F00D03B
:100620004942031000D34042534000229C46030934
:100630008B422DD3030A8B4212D3FC22890112BABA
:10064000030A8B420CD3890192118B4208D3890192
:1006500092118B4204D389013AD0921100E08909AA
:10066000C3098B4201D3CB01C01A524183098B428B
:1006700001D38B01C01A524143098B4201D34B0174
:10068000C01A524103098B4201D30B01C01A5241D7
:10069000C3088B4201D3CB00C01A524183088B425E
:1006A00001D38B00C01A5241D9D243088B4201D3E7
:1006B0004B00C01A5241411A00D2014663465241D2
:1006C0005B10104601D34042002B00D549427047D1
:1006D00063465B1000D3404201B50020C046C046CF
:1006E00002BD704770477047754600F025F8AE466A
:1006F000050069465346C008C000854618B020B5BD
:10070000FFF77EFD60BC00274908B6460026C0C53D
:10071000C0C5C0C5C0C5C0C5C0C5C0C5C0C5403DB9
:1007200049008D46704710B50446C046C046204675
:10073000FFF739FD10BD000000487047887B0100BD
:1007400001491820ABBEFEE726000200704770B5D5
:100750008C180578401C6B075B0F01D10378401C97
:100760002A1106D10278401C03E00678401C0E7066
:10077000491C5B1EF9D12B0705D40023521E0DD452
:100780000B70491CFAE70378401CCB1A921C03E05B
:100790001D780D70491C5B1C521EF9D5A142D8D39F
:1007A000002070BD704700000748007A002809D07B
:1007B00010B5042003F0BAFC0C220449044803F0ED
:1007C000C3FB10BD7047000052500100C14701003B
:1007D000E1D30300F8B58906114D890E079F069EE7
:1007E00069748006800EA8749006800EE87401205B
:1007F00080071B246403A0606360E660EF7303203E
:100800002874012012F0E0F901E011F0A1FE607DF2
:100810008006FAD4607DC007F7D12874F8BD0000C7
:1008200060600300F8B59C460B460A999646090796
:100830000246090F1B246403079F089E099D069822
:1008400061709106890EA170E37061466160A060DD
:1008500027612662E5607046C006C00E2070022047
:10086000207500BF03202075012012F0ADF900BFF4
:10087000607DC00704D011F06BFE607DC007FAD127
:1008800000202075F8BD0000F0B41F4E1F48717A9B
:1008900001701F489421427E21480027095C1D4CAD
:1008A0001D4D1E4BE030002A04D0002902D04178B3
:1008B000597605E0B67D5E76002A0DD000290BD072
:1008C000C179002903D027702F701F7614E0FF2113
:1008D0002170297019760FE0124E367F002E03D05A
:1008E00027702F701F7603E0FF2626702E701E766D
:1008F000002A06D0002904D0007881060348890E1A
:100900000170F0BC70470000325001004014030039
:1009100067510100401103004013030040530300DE
:1009200007510100DE4F01000B480C4A417A11705B
:100930000B4A807A50760B480B49C07E0B4B00283F
:1009400004D000200870187010767047FF200870DF
:1009500018701076704700003250010040140300F8
:1009600040530300DE4F0100401103004013030019
:1009700004480549407A08700449A02008700449D9
:10098000087070475B500100401403000011030021
:1009900000130300054910208870C521890288755D
:1009A000034933204872034948727047001203001C
:1009B0004015030040160300704700000549102051
:1009C0008870C5218902887503493320487203491C
:1009D00048727047001203004015030040160300E0
:1009E000F0B45948417E5948002905D0427F93060A
:1009F000574A9B0E137005E0564AD27A9306544A22
:100A00009B0E1370544E0222327408227274534AA1
:100A1000052353760223C522920253700A23D37111
:100A20004F4B1A79FD252A40012422431A714D4A61
:100A300013792B4023431371FF274B4B4B4D00245D
:100A4000002903D0807F002804D106E04848C07AFE
:100A5000002802D01C702C7001E01F702F703F4BDB
:100A6000187EDF210840102528431876307EDD21CE
:100A700008403949284308763E48017E40263143E4
:100A800001763D490E7E40273E430E761E7E760659
:100A9000760E1E76047500230B751C46304B5C7178
:100AA00000245471354C267CFD24344F26403E747E
:100AB000334E367C324F26403E740679264006710E
:100AC0000E7926400E710479C026344304710C79E6
:100AD00034430C711C7DE606F60E112426431E7568
:100AE000167DF606F60E26431675264EB570C526FB
:100AF000B602B575244F33257D72244F7D72A02533
:100B000005700D70224900200873234821490161B6
:100B10002249416171210903816121490020087442
:100B20002049087420480477204804772049012090
:100B30000876074908762020187010701149E020C7
:100B4000C875F075F0BC704767510100875101000E
:100B500040140300BE4F01002014030020120300C4
:100B600060110300601303004011030040130300F1
:100B7000DE4F01000011030000130300A011030069
:100B8000A0130300001203004015030040160300E9
:100B900020160300000606004053030000040F0067
:100BA00080110300801303000015030000160300EA
:100BB0004012030070B439490020087008710872AF
:100BC00008730874364919220A74FF23354A023320
:100BD0005380908090719082334C02232371207552
:100BE00006244C71A0240C753049097C2F4C194304
:100BF00021742F4D19212974FF242E4902344C8071
:100C0000888088718882FF2446348C622A4E347929
:100C1000A406A40E1C433471307506246C71A02404
:100C20002C75264C247C1C43244B1C74244B06241A
:100C30009C755C7504249C76224B01241C745874AA
:100C40005C82214B1B7E23431F4C23761F4B9B7DD5
:100C5000102423431D4CA375C5239B029C7D1025A6
:100C60002C439C751A4B1C7F2409240108341C77E3
:100C7000184B1C7F2409240108341C77164D174B90
:100C80002C795C721C7A032634431C72144C2B7B27
:100C900023730877107770BC70470000201303009F
:100CA000601303000016030000130300A0130300E9
:100CB000601103000015030000110300A0110300E0
:100CC00040530300A051030020140300001203004E
:100CD0002015030020160300755201004050030048
:100CE000E0500300F0B5D3488AB0C2790192D24AED
:100CF000002510464030037E0893D04B0793D04B1D
:100D000060325C7A06941C7E0594527E0492019AAD
:100D100084246243CB4C2946121900921A7A407EF1
:100D2000944600240390C74842183D204001101803
:100D30000378042B1CD0C34F002B24D00222027056
:100D40004A00D3191D2292019A18D38BBE4EB3428A
:100D500001D25B1CD3830C26009B4E439E191523A6
:100D60009B01F3181B7E002B73D08475C47299E02D
:100D700004708475B34AC472480082181D20800133
:100D80001018C4838EE00C26009B4E439E19152339
:100D90009B01F3181E7E002E69D0867D0996002ED9
:100DA00004D10F27FF01D719019E7E753F267601DA
:100DB0009219127D0292002A06D11422A34E4A43B0
:100DC0009219927C002A07D084756246032A41D08A
:100DD000089A002A04D02CE0099A521C8275F4E784
:100DE0009E7D0996022E05D81227DF5FFF265F360B
:100DF000B7421DDB099E012E1BD1DE7D012E01D0E5
:100E0000122E16D112269E5FFF23C3339E4210DAA4
:100E1000079B3C269E5FFF2391339E4209DA069B87
:100E2000002B06D1059B002B03D1049B002B00D186
:100E30000122837D834E934221D9029A002A1ED13A
:100E400001220270480083191D2080011818C283F6
:100E500015E017E0827D7B4B002A10D00122027042
:100E60004800C3181D2080011818C28307E084754C
:100E7000C4724800C2191D2080011018C4836D1C63
:100E8000EDB20FE0C37A66465B1CDBB2C372032E81
:100E900003D0039EB34202D804E0002B02D0042307
:100EA0000370D483491CC9B20B2900D23BE70B2D38
:100EB00001D16748847167490020497B0E462CE0C8
:100EC000864212D9614A5F4B3D2464011D182D19D9
:100ED0002D78002D05D114254543AD18AD7C002D8E
:100EE00003D0401CC0B28642F0D8864215D90B29E7
:100EF00013D2544A3D235B015418A446E518EC7AFA
:100F0000002C06D12C78012C0DD0022C0BD0032CF8
:100F100009D0491CC9B20B29EED3864201D90B294D
:100F2000CED30AB0F0BD474A012412180192D2185C
:100F300000921470434A4700BF181D229201BA184C
:100F4000D483404C04226418E3181A703D4B4C00C3
:100F5000E4181D239B01E3180022DA83394A8B0031
:100F60009F188400FF37A218C137FF323B88C13277
:100F700013807B8853800C22424305920622424311
:100F8000049206224A43039200240C224A4302920E
:100F900084222C4B6243D218059BD7182E4BFB188A
:100FA000029FD2192C4F9646D21997899F81D789D3
:100FB000DF81178A1F82578A5F82978A9F82D78A2A
:100FC000DF82422262431F4B039FD218049B641CA2
:100FD000D318D219FF32E132FF339789E1339F8171
:100FE000D789DF81128A1A8215277246BF01002332
:100FF000D219E4B21376042CCAD30F226346D2016D
:101000009F18019BBC7A9A1894727B7D5375009A45
:10101000EB7AD372009AAB7D93751F2362469B01D6
:10102000D218019D5478EB185C70147B1C73D27D30
:10103000DA7572E7B4F001000751010074F00100A5
:10104000BE4F010034E90100FFFF0000DE6901002E
:10105000B94801002751010042050000F0B591B0E8
:101060000026F748009601960296417C027C08060D
:1010700000141043C10F081840100590F148427D3C
:10108000017D100600140843C10F08184410B12157
:10109000FF228900EC48FFF7F6F90B21EB48FFF738
:1010A00019FA0B21EA48FFF713FA0B21E948FFF779
:1010B0000FFAE9480490E94D807C6870A87002F04E
:1010C0003BF86A46E6481673C1790498807C0B2881
:1010D00002D904980B228274E24A002000236E4653
:1010E00033540C264643B618FF232036401CC0B2AA
:1010F000F3750B28F2D3C81C80078422800F51435C
:101100000D90D84A00208B180C2141435A18152104
:101110008901511806224243D24FCE89D7190522A0
:101120001202BA1896810E8AD681401C097EC0B27E
:1011300011740B28E8D3CC490A91CC4A0821515E9E
:10114000059F0020C91B069109B20C910A21515E2E
:101150008422091B8C4609B20B910D995143C14A57
:1011600089180E910C21414315225E189201B21884
:10117000167E0D96002E3CD00E9E76181521890104
:1011800071180E7E002E31D0049EB77C0A9E367EEA
:10119000B7422BD8B34E37181F26B601BE19367B7F
:1011A000012E23D0D689CF897600F61B128A098AB0
:1011B0005700791A059A36B209B2964201DA1646F4
:1011C00003E0069AB24200DA0C9EA14201DA2146FF
:1011D00002E08C4500DA0B990622A24F4243D71950
:1011E00005221202BA189681D1810DE00D990129CC
:1011F0000AD0062106464E439A499D4A7618052193
:10120000090271188A81CA81401CC0B20B28A9D377
:10121000002420460694062148439249411805209F
:10122000000208180A90007C002869D091480B90B1
:10123000C013059004980026807C00283AD92046E7
:10124000142148438C4940180C9020462C214843D7
:101250007D494718834B0C210A987143C91880892E
:10126000CA8D098E801A0A9A00B2D389591A09B216
:1012700000F018FE4142B00039500C99724B897C45
:10128000002902D0FF210906395015219A19490178
:101290005118897A002907D138580B99884203DD03
:1012A00000B20B9070B205900498761C807CF6B268
:1012B000B042CFD80598401C19D02C206249604319
:1012C0004218059880001258FF20C04382420EDB6E
:1012D000059805220818D2018318091989181C7568
:1012E000059BCB7715220121520180188172564946
:1012F00006980A19152149015118641C4875E4B271
:101300000698401CC0B206900B2884D32C706878D5
:10131000A0421AD20021200014D0FF224A4F120608
:101320006878A04209D22C260B467343DB1986004D
:10133000401CC0B29A51A042F9D3491C2878C9B2C6
:101340008842EDD86878A8706C7028780022002850
:1013500025D93D4E91008B19FF334848813358669B
:1013600069780020002915D92C2114464C43A7196F
:10137000840039595E6EB14200DD5966324E00215B
:10138000A419FF34FF3402342161401C6978C0B2D3
:101390008142EDD8521C2878D2B29042D9D8002090
:1013A00005902878284C002872D935484D212018FE
:1013B000C9000C90611833480D9120180B900598C6
:1013C00021180520C00109181F200856401C7DD196
:1013D000297800290BD92C4982001219FF32FF32DB
:1013E0000232D163401C2A78C0B28242F4D82978F4
:1013F00068780818C1B20020002909D9421E1323B9
:101400005B012618F618401CC0B2B2778842F8D3A8
:101410000B210D98FFF75EF80B210C98FFF758F899
:10142000059840B20A9019480026C68721460A98B6
:1014300005F04CFA069011F08BF800200E904AE06F
:10144000495101004751010044570100AC590100C6
:10145000EE590100B7590100D4E90100045A010016
:10146000B4F0010034E9010094EC0100BA69010014
:10147000FFFF00000080FFFFDE6901000100008027
:10148000730200007E020000FFFFFF7FE0480100C2
:10149000A6E02878002600281DD90027B0000019F2
:1014A000FF30FF300230C16B00290DD1D649C16336
:1014B000D6482146C78770B205F008FA069011F0A9
:1014C00047F80698002806DC761C00E080E02878C3
:1014D000F6B2B042E2D8CE484078002876D10698DD
:1014E00000281BDD0522D2011321231849015F18B2
:1014F0002E78C1B28E1B3619BB7FB61833750B1907
:10150000132149015B181E215956491C03D01E2185
:1015100079560B9808560028E6DA57E02B78BA4837
:101520000021002B52D9132266185201B218127AE8
:10153000002A08D08A001219FF32FF320232D26B21
:10154000824200DA1046491CC9B28B42EBD8AE4940
:1015500088423BD00021002B1AD913226318520174
:101560009A18127A002A0ED08A0013191A46FF32EE
:101570008132566E361A56668032A34ED36BB34212
:1015800001D01B1AD363491C2A78C9B28A42E4D815
:101590006A780021002A13D913267601621892195D
:1015A000D27C002A07D08A001219FF32FF320232A1
:1015B00013691B181361491C6A78C9B28A42EDD8B5
:1015C0000E98002801D02EE700E062E710F0C0FF7F
:1015D0000598401CC0B205902978814200D9EEE6FA
:1015E000AD780020002D1ED98A4C6E468A490A1813
:1015F0000521C90152181421515600290FDB0C2274
:1016000003465343854A095D9A182032D175012358
:1016100073540C23F356994201DDD17D3173401C84
:10162000C0B28542E2D804986A46847C0C201056E9
:10163000611E814200DB601E107300203D214901C4
:101640001746764A121852181278002A01D0012241
:101650003A54401CC0B20B28F3D307AD2846FF21F3
:1016600011F04FFA00221146002C10D96B480C23C0
:101670004B431B182033DB7DFF2B04D0521CD2B20E
:10168000AB18203BD977491CC9B28C42EFD807A8C8
:1016900007F078FE03A805F0B9FA0498807C02F000
:1016A000ADFB0A9004980025807C2E46002874D952
:1016B0000A985D4900B210905948407A0F905948F5
:1016C000C37F827F180210430C90C8780B900C20C7
:1016D00052497043401820300690C07DFF2856D1F3
:1016E00006981C21807D4843504941180920C001BB
:1016F0000F18387C0590282148434D497C7C4118BF
:101700000E9060000D90085E0101081A6421FEF73A
:1017100002FF109940180F9900B2002904D00C9ACA
:101720000B998A4200D17320424A0E998A180D996A
:10173000515E81422BDB0498807C03280BD20598F4
:10174000012808D1092C13D00A2C11D00A21795E66
:101750000A9881421BDB69460C2008562C468542BC
:1017600015DC354A6D1C0B5DEDB2002B05D00AE08F
:101770000A20385E50280ADBEDE7142363439B18E8
:101780009B7C002B33D0641CE4B28442EADD0498D5
:10179000761C807CF6B2B04299D804980023807CF5
:1017A0001A4600281FD91D4D0C20504340193721DF
:1017B000095CFF2911D00C2159434919B431C48D5A
:1017C0000C80048E4C80448E8C80848ECC80C48EA1
:1017D0000C81048F5B1C4C81DBB20498521C807C12
:1017E000D2B29042E0D81548037611B0F0BD069809
:1017F0000A4AC475012008551F21002012198901C9
:1018000051180873C3E70000FFFFFF7FE0480100A5
:101810001E490100F95901004457010034E9010053
:10182000BE4F01000751010042520100A0600100BB
:10183000A0900100C08A0100DE69010054EA0100A5
:10184000F0B53C490020CE7B85B003466A463A4954
:101850001081CA7D8D7D120612148C7E2A4303925C
:101860004A7E0F7E1502354A3D43527E002A10D033
:10187000334A127D002A0CD0324A04245578177856
:101880002A0612143A4303922F4A557912792D02EF
:1018900015432949497D002949D02C492C4A89788A
:1018A000B04201D3002903D14700BF183F8AFB187B
:1018B000401CC0B20828F3D326480126007836031E
:1018C00040070221400F0F468740F01B1279584312
:1018D0009140FEF712FE18498871000AC87106F09F
:1018E00039FE01271C4800260770FF20F53007F05D
:1018F00047F806F0C5FB0CF0E1FF10F0B5FD06F06F
:10190000B5FB0DF009F86846068102AB2A46019640
:1019100000940020039900F0EFFE6846641E0089E1
:10192000E4B2002801D0002CDFD10C48877105B04B
:10193000F0BD0000805103007F500100675101009D
:1019400087510100EA510100E8510100294F0100CF
:10195000005603002050030064490100525001006A
:10196000F8B5174DFF202C7D013005F0AFFD00903C
:10197000E87B002822D006F0C3FF0120114E00278B
:101980003070FF20F53006F0FBFF06F079FB0CF01D
:1019900095FF10F069FD06F069FB3770687C297CC3
:1019A00000060214E87C0A43AB7C0102194300984C
:1019B00000F078FF641E2406240EE2D1F8BD00007A
:1019C0007F50010064490100F8B51A4D0324687A7C
:1019D00000282DD0FF20013005F078FD164F009033
:1019E000B878002824D10CF097FF352636030CF088
:1019F00065FF10F09DFC0CF08FFFB17C0F48027B5F
:101A0000102090408143B174E87AA97A000602144C
:101A1000687B0A432B7B01021943009800F042FFC8
:101A2000641E2406240EE2D10120B8700CF046FF9B
:101A3000F8BD00007F500100C84C0100BE4F0100FE
:101A400020BF70470A48007C00280FD010B5094914
:101A5000C87E897E801C891C484341000648FEF7E9
:101A600037FD10F075FD00F009F810BD704700005B
:101A700027510100004D0100A0900100F0B5264D56
:101A800085B0E97C23488906890E244E0191009097
:101A90001F4BB17EF07E1422FEF79CFEF07E0124E7
:101AA0008646012824D3A87C84463046877E0121BF
:101AB000012F19D31A4A2046282358438618194A59
:101AC00082184B00D55A60462D1A2DB2D552F05EC1
:101AD000854201DDD05203E0002D01DA0025D55208
:101AE000491CC9B28F42ECD2641CE4B2A645DED2D6
:101AF0000020019002900490054B0649074803938B
:101B00000091817E01227046FEF78CFE05B0F0BD8B
:101B1000EA0A1410CA10141027510100004D0100E8
:101B2000C08A0100A0900100F0B523482349807FBE
:101B3000234B002803D0002008701E2003E0987A71
:101B4000002802D0401E9872F0BD012008701D4888
:101B500002884A80807888801B48807A002824D0B8
:101B60001A480021415E1A483E2742790079120640
:101B70001514054317483C24C75F045FA94201DDE3
:101B80000125DD77144D6E792D79360636142E43F6
:101B9000B14205DA002C03DA002F01DA0120D877F0
:101BA000091D092901D20020D8770C4800790028A6
:101BB000CAD100F015F8F0BDD4EA01004C4901008B
:101BC000E0480100BE4F010007520100FE4F010036
:101BD0002852010074F001002A52010014F10100A2
:101BE000F8B5364A364E107800280CD03548417E7C
:101BF00010468079002901D0002804D0D579002D25
:101C000004D1002902D00020F086F8BDF38E2B4AC3
:101C10005B1C9CB2F48657886C3AD37F2A4AA74251
:101C2000D27B05D9002B03D1002A01D10029ECD0A9
:101C30000021F186214C0421615E002B05D1002A90
:101C400003D1002801D1002D01D0480001B21F4A64
:101C50000125D07E00900128D7D34842977E864642
:101C60000120012F24D32A4628235A43184BD21887
:101C70009446184B24226A43D31864464200A45E5B
:101C80008C4205DD9A18403A548B641854830BE05B
:101C9000744504DA9A18403A548B641A03E09A188F
:101CA000403A568B34195483401CC0B28742E4D268
:101CB0006D1C0098EDB2A842D2D2F8BD4C4901008B
:101CC000E048010067510100DE4F0100004D0100B6
:101CD00020A60100008001000448407F002803D0B6
:101CE00010B500F005F810BD70470000BE4F0100B0
:101CF000F0B5214800258478204886462048C17EDA
:101D0000002938D961428C461D490020897E00296E
:101D10002BD92946282251431A4A8E180C2169438F
:101D20007144024605E00328FBD3834219D8821A86
:101D3000921D4300F7182A23FB5EA34204DD5200E4
:101D40008B5A1B198B5209E0634503DA52008B5AF8
:101D50001B1B02E052008F5AFB188B52084A927EDE
:101D6000D31E401CC0B28242DDD805486D1CC07E27
:101D7000EDB2A842C8D8F0BDBE4F0100F07301001B
:101D8000004D0100C08A0100F0B4404D0020E884FD
:101D900028853F48407D002849D03E480121C77E24
:101DA000012F3CD31D26837EF6430120012B15D342
:101DB00028240A466243384C14194200A25E1E2AA7
:101DC00003DBEA8C521CEA8404E0B24202DC2A8D76
:101DD000521C2A85401CC0B28342EED2491CC9B2B3
:101DE0008F42E2D2E88C462802D3298D462947D873
:101DF0002A4A3E21515E1E2809D32A8D642A3FD8E3
:101E0000462804D32823D94201DA142A38D8642872
:101E100005D31420C14202DA288D142830D8687EF8
:101E2000002806D0401E68762878002803D0F0BC31
:101E3000704700202870194938223C238A5ECB5E07
:101E4000E88C991AC82805D9914203DD01222A702D
:101E500014226A76FA280BD919225201934207DD1F
:101E6000FF222D32914203DD012129701421697670
:101E7000FF2173318842DAD9094800880028D6D07A
:101E80000120287014206876F0BC7047E0480100FB
:101E900027510100004D010020A6010074F001004F
:101EA000DC480100404349434118012000228007DB
:101EB000002903D0042903D2012070470020704775
:101EC000814204D280088842FCD8002809D0131827
:101ED0008B4203D2C91A5208121800E05208800837
:101EE000F5D190B27047012100228907002802D065
:101EF000042801D201207047884204D28908814217
:101F0000FCD8002909D05318834203D2C01A5208C2
:101F1000521800E052088908F5D190B2704770B4A9
:101F200000240023045FCB5E9C4201DD1D4600E0DF
:101F300025469C4200DC1C460223C35E0220085E4C
:101F4000834201DD014600E019460E46834200DD72
:101F500018460021515EA9420ADBA14208DC022199
:101F6000515EB14204DB814202DC70BC012070474B
:101F700070BC0020704700000A48142101701B212A
:101F800041701D2383701F21C1701C2202711E220B
:101F900042718171C3710172232242728372C172D4
:101FA00002737047AC6901000C49020E0ED0012A81
:101FB0000ED0022A0ED0032A0ED00021002904D010
:101FC000020C0A70020A4A7088707047491CF5E7D3
:101FD000091DF3E7C91DF1E70149EFE7AC6901000D
:101FE000B6690100F8B50924E40121465E48FEF710
:101FF0006FFA21465D48FEF76BFA21465C48FEF712
:1020000067FA5C48007800280BD021465A48FEF752
:102010005FFA21465948FEF75BFA21465848FEF719
:1020200057FA552109015748FEF752FA5521C900C0
:102030005548FEF74DFA5548C079002819D00020C0
:10204000534C544B544E032582078108920F89004C
:10205000AA1A8918C9B2625C87193A701F22511AEC
:10206000595C511A4D4A82181174401CC0B2202884
:10207000EAD34B480024C07E00284DD949484A4D38
:1020800000904A4E7078022818D00098407E0028B0
:1020900029D04748234606199F20825D12204343DA
:1020A0004448A97918180746FEF7EDF9A879A03633
:1020B000C019F27FE979FEF7E6F927E0F07A2346C6
:1020C0004206122043433B48520E1818A97907468E
:1020D000FEF7D9F9F17AA8794A06C019520EE979C2
:1020E000FEF7D1F912E01220234643433148324E25
:1020F0001818325DA9790746FEF7C5F93119A87994
:1021000020310A78C019E979FEF7BDF92448641C2A
:10211000C07EE4B2A042B4D82448052241782548C4
:10212000D2018318A52292008518022911D0234CD0
:102130001421E27E1846FEF7A6F9227F14212846D4
:10214000FEF7A1F91648C07E41001D48FEF7C0F910
:10215000F8BD712214211846FEF795F904221421C6
:102160002846FEF790F9EDE700000200001002009B
:102170000080010042520100609B0100C0A00100EC
:1021800090AB0100C08A010064E00100FE4F010035
:10219000E94E0100094F0100A0530300C0530300A2
:1021A000004D0100675101002751010075520100E7
:1021B0000751010000200200294D01007F5001005D
:1021C00040220200F8B5FF2501350024284605F01D
:1021D0007DF914490A69AA430A611349097800295B
:1021E0001FD1124EF17E00291BD9114F06226243E6
:1021F0001221D3196143DA1DF932091815780D70CF
:1022000055784D7092788A70DA1DFC321378CB7352
:1022100053780B7492784A74641CF17EE4B2A14244
:10222000E4D8F8BD80000300CA4C0100004D010055
:10223000294D0100F8B502880B8849884088D21AD8
:10224000081A04B215B200262146284601F084F986
:10225000002D00DC6D42234BAAB299798A4207D245
:10226000002C00DC6442A2B28A4201D23046F8BDA2
:1022700016280BD9432801D8012208E0702801D87C
:10228000032204E09D2801D8022200E00422164D1A
:102290006978FF2901D16A70A8716C7894421FD0C7
:1022A000A979B4262D2806D2872904D9B42902D8C1
:1022B000761A311807E02D290BD2872809D9B428BE
:1022C00007D8361A7118DB79C9B2994207D222466B
:1022D00006E0884201D9411AF5E7091AF3E7A87127
:1022E0001046F8BDC44801006C490100F0B58BB040
:1022F0001446054600F016FC099000200594AE46F1
:102300000490009001900290039081008C467246E8
:102310005158012903DA01216246734699506146FA
:1023200072465458FF230827063307937901FB238D
:10233000002608912102BD01069332462346012C56
:1023400000D821E0022B03D35B08761C022BFBD2C2
:10235000F140BE4010E0A94204D24943F940521C6A
:10236000A942FAD30023089C002A03D964085B1C05
:102370009342FBD3361949080A2A05D2069B994293
:10238000E9D3079B9942E6D8401C61466A46C0B231
:1023900056500428B9D303982B4B2C4C002829D035
:1023A000019900981522401A02990D25411A0398A7
:1023B00008180A21484300995143019A6A438A1A2E
:1023C00002990D014919521A0399CD004919521861
:1023D000002809D0059901292ED0E17E4143588972
:1023E0005043FEF798F80490099904980BB04018F0
:1023F00080B2F0BD019802994000401A0099401A3D
:102400000490F1D00598012802980AD0401A598901
:10241000049A4843E17E51434900FEF77CF804905A
:10242000E2E7401A1989049A4843A17E51434900C2
:10243000FEF771F80490D7E7A17E41431889504315
:10244000FEF769F80490CFE7BA690100004D01007A
:10245000F0B504460025304883B0002907D040304D
:10246000427D037D100218434004060C06E0423012
:10247000427C037C100218434004060C274877086E
:10248000807F0090A7421FD200281CD0244800293A
:1024900085783AD03046322148435021FEF72DF856
:1024A0000190A04231D22946201A123148430099A6
:1024B000FEF723F8044601980099C01B6843FEF715
:1024C0001CF8001985B23C46B708A7420CD2009808
:1024D000002808D01249E01B497848430099FEF7CC
:1024E0001AF8401985B23C460098002807D00C48DD
:1024F000009900786043FEF700F8401985B2B542B4
:1025000000D93546284603B0F0BDE01B684300996A
:10251000FEF701F8D6E7000007510100E04801008E
:102520002349010000B5184885B0007B002828D059
:10253000032009210007490443181448417A14482C
:10254000002906D013490978002901D02B2149011F
:1025500008180022009010490192029204920F483C
:102560000391817EC07E0122FEF75CF955221201A3
:102570000B490C48FDF746FF01200DF029F905B085
:1025800000BD0220D5E70000BE4F0100DE4F010074
:1025900000001210E2480100EA0A1410004D010088
:1025A000C08A010020A60100F8B51C2148431F493C
:1025B000002341180920C0010918487A0125401C50
:1025C0001C460090012825D34F7B781E86467F1C31
:1025D0007046C0B2874218D3294628225143144A74
:1025E00089188C4661464600895F002901DD0A464C
:1025F00000E00022761E7243D318002900DC00217F
:10260000401C0C19C0B28742ECD26D1C0098EDB290
:10261000A842DDD20748807E604341000648008919
:102620005843FDF76AFF80B2F8BD0000A0600100CA
:1026300020A60100004D0100BA690100F0B585B087
:10264000294D012004F042FF55210390090127483C
:10265000FDF73EFF002026490190C87E009000282B
:102660003FD98A7ED01E0021002A32D9019B242422
:102670006343039C1D4E1B199E46019B0C24634320
:102680001C4C1F19019B282463439B199C464B003B
:1026900074460293E65AFB5AF31A1CB2029B634437
:1026A0005C850EE00329F2D388420ED88E1A76009C
:1026B00074464B00BE19E45AB6896344A61B34B273
:1026C0005C852346AC4200DD1D46491CC9B28A42E6
:1026D000E8D80199491CC9B20191019B009999421E
:1026E000C1D8284605B0F0BD78ECFFFFC08A0100D4
:1026F000004D0100F0730100FFB589B004460820C9
:10270000139D04F0E3FE06465F480890200A002768
:102710000590E0B207970690002D00D05B4E5C4814
:10272000007B002830D0032009210007490443180A
:102730000A9C594A0021029456480392574C019131
:1027400004910090A17EE07E0122FEF76BF800204C
:102750000290E07E002877D90B9800B201904F4894
:102760000024807E00287DD90298242148430899BE
:10277000029D40180390122045432146029804F020
:1027800055FF002868D101E00220CDE703986100E1
:10279000405E0090002800DA404281B20B988142EE
:1027A0005AD90798401C80B207900B98002804D093
:1027B00001990098FDF7AFFE07B2394B587903280D
:1027C00044D3129988421CD10A9900989A794018EA
:1027D000D979090609141143019A8A1A904235DD04
:1027E000884226DD32E0069A059900B2914231D046
:1027F000884202DC114690422CDA084629197054AE
:102800002AE0401E884221D103213846FDF783FE8D
:102810000146019841432248C27983791006001489
:102820001843421A0A9B0099C9188A420EDA81425B
:102830000CDC05213846FDF76EFE1949097A48433C
:102840002919715C4018CEE716E00BE02819305CBE
:10285000C019C8E7291970541048641C807EE4B27E
:10286000A0428AD80298401CC0B202900B48C17E98
:102870000298814200D972E70C98002802D00C9986
:10288000079808800DB0F0BD60850100003002009F
:10289000BE4F0100000012F060051210004D010053
:1028A0007F500100F7B5064686B00020334C0190FA
:1028B000207A052805D0032803D0042801D0012858
:1028C00059D112200090012004F000FE04902C4801
:1028D0000027C17E00294ED9079909B203912848E3
:1028E0000024807E002840D938462421484304999A
:1028F0003D4640180290009845432048007A05283C
:102900000CD003280AD0032C0FD31D48807EC01E94
:10291000A0420AD900203119685420E0032C04D3C6
:102920001748807EC01EA042F4D80798002809D01E
:1029300002986100415E0898401A0399FDF7EBFD8B
:1029400000B2019031196A5C0198101A00B27F2818
:1029500001DD7F2002E0002800DA002068540848EA
:10296000641C807EE4B2A042C7D805487F1CC07EAC
:10297000FFB2B842B3D809B0F0BD0000BE4F0100AD
:10298000004D0100F7B586B00C46069809F036F9FF
:102990000C20444332481C212518E88D05900698E8
:1029A000FF2748432F492E8E41180920C0010C18DB
:1029B000A079E1794137801C814223D80122684601
:1029C0000699FFF793FC0490684601F05DFA617C7C
:1029D000022904D9244A491C927E914200D33846E8
:1029E00022490A8904998A4200D238460146403970
:1029F000059A89B25143049A381A504308180002C4
:102A0000000CE885207A617A801C814224D8022259
:102A100068460699FFF76AFC0490684601F034FAAC
:102A2000217C022904D9104AD27E521E914200D341
:102A300038460E494A8904998A4200D238460146EE
:102A400040394E43381A049980B248433018000286
:102A5000000C288609B0F0BD2E8609B0F0BD00003C
:102A600034E90100A0600100004D0100BA690100D5
:102A7000F8B5274F0026BE7426480090264D0680E4
:102A800028783446012808D1002002F0A5FD00284E
:102A900003D022480121017101E020480471287807
:102AA0000024002833D91C201B4960434118092009
:102AB000C0010D18E889002823D0012231462046A4
:102AC000FFF760FF0C20314641431548FF220918EB
:102AD00008462030C2756A894A86AA8A8A86847521
:102AE000297901766979417600980088904201D26F
:102AF00000980280B87C761C401CF6B2B8740B2E8D
:102B000005D20548641C0078E4B2A042CBD8F8BDD9
:102B1000D4E90100B4F00100A0600100E048010028
:102B200034E90100F0B5944685B0A54A039200222D
:102B3000026042608260C260A24A1C26092471437E
:102B4000E40189186346A04D0A19012B22D0117A9D
:102B5000537A0193EB7E94790294D479AE7E527CC1
:102B60009A4D0495029DA54208D1012D02D96D1EF2
:102B7000EDB20295B44201D2641CE4B26D1CAC42C9
:102B800019D1029DAA4210D1012D0ED96A1ED2B2CE
:102B9000029210E09179D3790193AB7E147A02947A
:102BA000547AEE7E127C8A4DDBE7A24203D1B44216
:102BB00001D2641CE4B2019A864F8A4230D14A00A5
:102BC0000499895A039102990091A14262D8002187
:102BD0006246012A1CD0019A009D5218521E0DD047
:102BE0009A420BD828267243D2196D00525F052AEB
:102BF00000DC00228D00465992194251491C0329DC
:102C0000E6D30099491CC9B20091A142DFD9D1E0B5
:102C1000019D009A6D186D1EF0D09D42EED8E1E73F
:102C20004D1CAA423ED1029A0092A24223D800250E
:102C30006246012A2FD04F19009E7F1E0ED09F4260
:102C40000CD828225743634A7600BA18925F052AA7
:102C500000DC0022AE008759D21982516D1C042D70
:102C6000E6D3009A521CD2B20092A242DFD9836806
:102C700042689A4208DC00218A0013185B68491CEC
:102C800083500329F8D301994A000499895A039182
:102C90000021C1608EE04E19009F761EDED09E425C
:102CA000DCD8CEE78D1CAA4255D18A185508049A63
:102CB0006D00525B0392029A0092A2427AD80025DC
:102CC0006246012A48D0009E4F190ED09F420CD870
:102CD000282257433F4A7600BA18925F052A00DC43
:102CE0000022AE008759D21982516D1C032DE7D303
:102CF000009A521CD2B20092A242E0D90568426802
:102D0000954232DD012955D9491ECAB203218B00F3
:102D10001D18803DED6FC550491EF8D10160029924
:102D2000A14214D82B4F6346012B1BD015460B46EE
:102D300028267543ED195B00EB5E052B00DC0023B4
:102D40000568491C5B19C9B20360A142EBD904981C
:102D50005100405A03902DE0009F4E19C5D09E426D
:102D6000C3D8B5E70D461346E2E78568954221DDF5
:102D7000019A9A421ED2521CD2B20192029AA242E7
:102D800014D8144F6346012B17D0019D13462826F3
:102D90007543ED195B00EB5E052B00DC0023C56875
:102DA000521C5B19D2B2C360A242EBD9049849000D
:102DB000405A0390039805B0F0BD1546019BE6E725
:102DC000FFFF0000A0600100004D0100406B01000A
:102DD000826B0100C08A0100FFB581B001985C00E0
:102DE000005F15460E46002801DD014600E0414225
:102DF000325F0BB2002A01DD114600E0514209B2F8
:102E0000002D01DD2F4600E06F423FB2BC46CF00EF
:102E10009F4220DD63464F005B00CF19BB4211DDAE
:102E200001290FDD41004018C10F08180199401019
:102E30000853305F41004018C10F0818401030534C
:102E400005B0F0BD68431146FDF765FB01990853D5
:102E5000355305B0F0BD8C45FBDA0129F2DC05B035
:102E6000F0BD0000FFB55A4C0025A07881B0164691
:102E70000F4600281CD0574AD078B84218D1107A93
:102E8000B04215D1E078002812D0A18800290FD0D7
:102E9000514B01995B7899430AD10199002903D1DB
:102EA0004E49897D002903D1022812D0012810D073
:102EB00005B0F0BD0FF04CFB4648C178B9427FD158
:102EC000007AB0427CD1E078002879D0A088002830
:102ED00076D04048C079002802D0E0780228E9D0B6
:102EE0003F4840780028E5D13E480078002803D1CB
:102EF0003D4800780028DDD13C48407C002801D0C6
:102F000009F014FB32463946049B019809F0B0F9E8
:102F100000F006FCE178364A0120012921D002297F
:102F2000C6D1344991710546090A2D48D1710572FF
:102F30000AF036F9002843D02846264D2649E87184
:102F400001980870E878B8423AD1287AB04237D16F
:102F5000E078002834D0A188002931D002282FD170
:102F600027E025499171090A1D4ED171074630723B
:102F70000AF016F9002823D01648C771164801999F
:102F800001700DF003F9307A002891D019277F01E4
:102F9000012001F0CBF86D1CBD4289D8E0780028F3
:102FA00086D00FF0D5FA307A0028F1D105B0F0BD07
:102FB00006E00FF0CDFAE8790028C3D105B0F0BDE6
:102FC00004490020C8710649087205B0F0BD000030
:102FD000FE4F0100BE4F0100BA470100DE4F010065
:102FE000A8540100144801001548010007520100CF
:102FF00048400100234100000341000010B5074C88
:103000005321204600F0AFFF2021054800F0ABFF20
:103010001321204600F0A7FF10BD000005D50300D6
:1030200002D6030010B50EF003FF06F091FC10BDB0
:103030000A490A7810464A78120210438A78C978F9
:1030400012041043090608430549020A08704A7031
:10305000020C8A70000EC870704700008D5201008B
:1030600065490100F8B52E4D2878002838D1E87858
:10307000002835D000242B4FAC70797809062ED467
:1030800029490978002903D1022801D9EC7026E0EA
:103090007A7CA98901268A4223D87A8A8A4220D357
:1030A000012802D0032803D019E00220E87016E0BE
:1030B0001E4B1F4A588851881288401A01B218883E
:1030C000801A00B2FEF7EEFE397D884202D250200F
:1030D000A87000E02E71EC70A878502805D0AC7074
:1030E000F8BD0328D2D12E71D0E72E70B888E881C0
:1030F0000E4C104A23881380618851801046C3808B
:103100000181918841810A4904250B88938149886E
:10311000D181257343828182118AC182BD72F8BD3B
:103120006C490100C448010088490100BC720100DB
:10313000D4720100BC6F010010B50FF0F3FC03481E
:103140004078002801D104F0BDFC10BDE44C010022
:1031500008480122807B0849002809D0032807D0AD
:103160000020C87105480078002800D0CA71704757
:10317000CA71F7E7BE4F0100B75001008A52010043
:10318000F8B5E549E5488C1D002585702E46284692
:10319000182242435218927C002A04D0182250432D
:1031A0004418A41D03E0401C80B20B28F0D3227BFE
:1031B000DB4F042A0ED0D84800780028D7487DD0AD
:1031C000C078D8490091002879D0012878D0022809
:1031D00077D0BFE004F05AFFD348D04D8088E9890A
:1031E00088426FD82878002879D100242146CF481A
:1031F0000BF07EFAA87001F09FFA002803D0A8789F
:10320000002801D01EE0AE70FFF72CFFA8785028F0
:1032100003D101F08DF9002803D0A878002801D04F
:1032200010E0AE70C2490A7810464A781202104384
:103230008A78C9781204104309060843000201D5B0
:103240007F20A870B848807A03467F280ED20246B5
:1032500006214A43B749401C51183A880A807A88A7
:103260004A80BA88C0B28A807F28F0D3A878002824
:1032700035D0502833D0FF206870012B01D80024AE
:1032800017E0002739460620AA4A4143505A8918B8
:10329000CA88801A4A88098900B2511A09B2FEF711
:1032A00001FE001984B2A0487F1C807AFFB2B842A8
:1032B000E8D2A8787F280BD0288905E017E019E02C
:1032C0002BE03DE010E00AE0844208D8AE7006E052
:1032D0009948817E427E08021043A042F6D3E878E6
:1032E000002801D1012028706E71A878F8BD4671C0
:1032F0000020F8BD8948017900292BD0012A29D165
:103300000099898A322925D20121C170468118226B
:1033100021468A48FDF776F81CE088486288418893
:103320000088891A228809B2801A00B2FEF7BAFD15
:1033300001467D48007D81420CD97848C67009E07D
:1033400076480321C170182221467D48FDF75AF8BE
:10335000724806710098818A7A4842780378100290
:103360001843814203D86D484179002904D06B4845
:103370000121C6704171CCE067490978012900D963
:10338000C67066480078002822D0644F012038714A
:103390001820294641436C48BE8108183E70182207
:1033A0002146FDF72FF8FF20787068486849465598
:1033B00000200E54401C80B28028FAD35A495D4840
:1033C0008E7222880280628842800120887238E0F2
:1033D0005248C189002934D05C498681485D7F28E4
:1033E00004D25B4B09221A54401C48554E48817A3E
:1033F0007F291AD20846062250434E4A491C80189B
:103400003A8802807A884280BA888280C8B2464967
:10341000484B8872062141436288CB185A80454A3E
:10342000238853524049401C887218202946414342
:103430004548182208182146FCF7E4FF37490920BF
:10344000487036482B46C681182043433E482188A1
:10345000C05A814201D90A1A00E0421A96B2324A91
:10346000127A96420DD2384E67889E197688B742F6
:1034700001D9BE1B00E0F61B9700B6B2D719BE42B9
:1034800047D3314E67889E1973889F4201D9FB1A32
:1034900000E0DB1B9BB2244F934209D2814201D949
:1034A000081A00E0401A910080B25118884230D3C7
:1034B00031462046FEF7BEFE1849002888700FD01E
:1034C0004A78824203D1214A525D002A08D11F4B1B
:1034D0004870595D1E4A7F29505401D2491C5955E4
:1034E000182221463046FCF78DFFB87A7F2809D292
:1034F0000621104A41438E186588758025885552EB
:10350000401CB8720420207312486188818721888A
:1035100041870020F8BD0000945201006C49010071
:10352000B672010020650100C44801007A3501002F
:1035300054500100BC6F010012500100BC72010028
:10354000D472010035500100EC720100884901007D
:103550003C6F01007C72010070B5054600200C46EE
:10356000002D23D00846642148432946FCF7D3FFA9
:10357000020000D542421149002092B24300CB5ACA
:10358000934203D8401CC0B22D28F7D3002D04DD90
:10359000002C07DCB421081A06E0002C03DD5A21B8
:1035A000081AC0B270BD5A30C0B270BD002C01DD27
:1035B0002D2070BD0029FCDA872070BD2035010068
:1035C000F8B5E1213848FCF785FF38480FF070FA6C
:1035D0003748002646668666C6660667354D4667E6
:1035E000354CEE700F20E074AE713448EE712E72DF
:1035F00001460A78304610434A78324F120210438F
:103600008A78C97812041043090608432C4900221D
:10361000C873000A08740B46B87BD872F87B18731D
:1036200001202949207508704A708A70CA70A97BE8
:1036300001291ED002291CD02873787B9873387B0F
:10364000587322486E74C17F827F0802204910435C
:10365000204FC8723E72FE7302F002F8BB200003D6
:1036600001681D4A914206D1007CA872FF2802D051
:1036700002E02E73E1E7AE720AF0B6FB02F000F84A
:103680006E726E76A87B6075BE74FEF775FC13488B
:10369000FEF78AFC1248FEF787FC1248FEF784FC0E
:1036A0001148FEF781FCF8BDA45301000048010059
:1036B00024540100BE4F0100DE4F01000001000054
:1036C000004D0100C00000005450010007510100EE
:1036D00062520100FE4F01005AC30000221613007F
:1036E00022161401281A1602281A160310B5FE20F5
:1036F000032424046072062000F032FD00210748F4
:1037000000F031FCC82000F02BFDFF206072062085
:1037100000F026FD0020207210BD000004C0030050
:103720000948817D00290DD110B4352109038A7C17
:10373000064B1C7B1023A3409A438A740121817598
:1037400010BC704770470000DE4F0100BE4F010003
:1037500010B51D481B490068FCF7CFFE1B4A1C4BE7
:103760000021CC00145D844201D8197005E0491C89
:10377000C9B20629F5D30520187003200004407C47
:1037800014490128187818D0C00080184078C874EF
:103790001878C000801882788A7402794A74C278D6
:1037A0000A740D4942790A73807948730B4800788E
:1037B000002801D104F086F910BDC0008018C0793E
:1037C000E5E7000040420F00FC470100CC35010056
:1037D000B84B010020000300600003000C3601001C
:1037E000002A07D042884B889A4205D09A4201D2DB
:1037F0000120704700207047008809888842F9D26C
:10380000F6E730B40488138845885088E41A2A1AE9
:1038100015B20A884988D21A081A24B212B200B224
:1038200044436A43A01A002802DD30BC01207047DF
:1038300030BC002070470000F0B585B0002069461C
:103840004D4A08811046837841781806001454794F
:103850000843039010460179C0780D02474B054399
:103860000020DE7B01461278002A7DD0444A454B79
:103870009278B04201D3002A03D14700FF183F8A53
:103880007918401CC0B20828F3D33F4801220078C1
:10389000D2024007400F01278740D01B48431979C7
:1038A000C84035498871000AC8713848407E0028F0
:1038B0000DD03748447E3748427D017D1006001404
:1038C000084303903448417D007D0D0205430BF011
:1038D00023F80120314F002638703148C078002885
:1038E00001D10EF015FE0AF0E9FF0EF021FD3E7049
:1038F0000BF012F8684606817F2002AB2A4601963B
:10390000009400020399FEF7F7FE6846641E0089E2
:10391000E4B2002801D0002CDFD1224FF878002833
:1039200026D021480025C17E002921D91E48002427
:10393000807E002814D912202E4646432146284670
:1039400003F074FE002805D1184930190A5CFB7891
:10395000D2180A541448641C807EE4B2A042EDD808
:103960006D1CEDB2104800E004E0C07EA842DDD836
:103970000120387105B0F0BD7F5001008051030077
:10398000294F010000560300205003006751010039
:1039900087510100885101008A51010064490100EA
:1039A000BE4F01009F500100004D010000200200A9
:1039B000F0B51C225043D74A09258018ED01401963
:1039C000A1B0047B1494437B01931C2359438918B1
:1039D0004A19137B1793547B1594437901799C46BC
:1039E000019B1079E31A5DB2149C179B52791B1B43
:1039F0005CB26346D31A5BB21893431A5BB2169358
:103A0000002C01DB234600E063422E1E00DA6E42EA
:103A1000B34201DDE31C00E0EB1C062B22D92B4650
:103A200026466B4366439F19189E169B76435B435D
:103A3000F3189F4216DD2823B74F4B436646DB1928
:103A400076009B5F002B0DDD28234343DB195600D6
:103A50009B5F002B06DD1491189D169C6146159204
:103A600001911790002D01DB284600E06842C6B2A4
:103A7000002C01DB204600E06042C0B21690159B8E
:103A8000179A0199149803F015FE070019D0022F18
:103A90001AD064201A900199149800F01DFC189017
:103AA0001599179800F018FC1790189800287DDDDC
:103AB000179800287ADD0020C043002C06DD012184
:103AC00009E04B201A90E6E75A20E3E7002C01DAE0
:103AD0001B9001E000211B91002D01DD012002E07F
:103AE000002D00DB0020199016986D438019C0B29C
:103AF0006443159028191A2858DC012E02D816980C
:103B0000012873D96420694601240881012E45D318
:103B100015981899001B4843179961434018159947
:103B2000FCF7F9FC05B21998019960434018C1B23D
:103B3000149800F0D1FB642148432946FCF7EBFCC4
:103B400000B2694608805F2802DD642008800FE02B
:103B5000002F0DD14B280BDC322806DDC117490F91
:103B60000818C01069464B3001E04B2069460880B8
:103B7000600002AD41191C9040393E20085E6A4643
:103B80000021515E484364213230FCF7C4FC0146F9
:103B90001C98641CE4B22952B442B9D91698012584
:103BA00001286FD31598401B1F9000E0AEE01899D4
:103BB00048431799694340181599FCF7ACFC04B2C7
:103BC0001B981499684340181E90C0B2019900F0E8
:103BD00083FB642148432146FCF79DFC00B2694603
:103BE00008805F2803DD6420088010E08BE0002F50
:103BF0000DD14B280BDC322806DDC117490F081800
:103C0000C01069464B3001E04B20694608802846C9
:103C10000C214843044602A940181C904038342225
:103C2000825E69460020085E6421424310463230BD
:103C3000FCF771FC02A908530124012E4ED31F98F2
:103C40001899001B4843179A291951434018159990
:103C5000FCF761FC00B21D9019980199604340186F
:103C6000C1B21E98C0B200F037FB642148431D99D1
:103C7000FCF751FC00B2694608805F2803DD642030
:103C8000088010E030E0002F0DD14B280BDC3228EB
:103C900006DDC117490F0818C01069464B3001E016
:103CA0004B206946088060001C991D900A18403A14
:103CB00034203E21105E515E884200DC08466A4690
:103CC0000021515E484364213230FCF724FC1D9AE8
:103CD0001C99641CE4B28852B442B0D96D1C169889
:103CE000EDB2854200D85DE70C21484302A9401897
:103CF0007100405A6421484300B2FEF7F4F81A9963
:103D000000B2884202DD012021B0F0BD002021B0C8
:103D1000F0BD0000A0600100C08A010010B51C4C7D
:103D20001C486278022A10D01B490B7A1B49032BCE
:103D3000497E11D0052B0FD0002914D01848437D9F
:103D4000017D18060014084312E041780378080248
:103D50001843400000B20BE0002911D01148007D4B
:103D600000280DD010484378017818060014084345
:103D7000217D002901D0022A01D00BF0FFFD10BDEA
:103D80000A48C37D817D180600140843F0E700004F
:103D90007552010080500100BE4F010067510100C3
:103DA0008851010087510100EA5101007F50010054
:103DB000F8B50E4C0E4DE07C20760026EE712E728A
:103DC0000AF034FD0B48012706700B480670AE71EF
:103DD000E774E878012804D10EF0BAFBE8780128EE
:103DE000FAD0EE71AF71207EE074F8BDDE4F0100B5
:103DF000BE4F0100CA4C0100C94C01001E490A7A9D
:103E0000032A08D00A7F1D49002A0AD0C87B897B73
:103E10000002084370471A48417D027D08021043A2
:103E20007047012804D84878097800020843704791
:103E300002280CD003280FD0042812D01148008883
:103E4000002813D0C87D897D000208437047C878D8
:103E500089780002084370474879097900020843CD
:103E60007047C8798979000208437047487A097A0F
:103E70000002084370470000BE4F010007510100D7
:103E800032500100DC48010070B50FC8FF244134F6
:103E9000012B03D0984216DD054615E0904201DD66
:103EA000034600E0134664256B4314254D43AB42A3
:103EB00011DD904200DC1046FF2241325043FCF7F6
:103EC0002AFB80B212E01D468918C82614227543C9
:103ED0004A43954201DC402008E0984200DC184645
:103EE0000522D2015043FCF716FB80B20146FF22A7
:103EF00040390232914200D3204670BD30B4842351
:103F00005A430F4D0C235219584313180C22514396
:103F10004A191520D11D80011818C489F9314C8720
:103F2000048A8C87448ACC87FF32818A413211808F
:103F300004495918898A9180407E907030BC70473E
:103F400034E901004205000010B582B0009132242E
:103F50001346014600220194042000F013F802B039
:103F600010BD0078704700B583B00A4600213223A7
:103F70000091019301460123022000F003F803B0F1
:103F800000BD0000FFB581B00B9F32261C460D46D8
:103F9000002F00DD3E4672B601201D4908750198CC
:103FA000022804D0032805D004280DD016E0039879
:103FB000287013E00020002C10D9039A2A54401CCA
:103FC00080B2A042F9D309E00020002C06D90A9A59
:103FD000125C2A54401C80B2A042F8D3487DC0072E
:103FE0000FD0002008750A200EF0EEFD002F04D03F
:103FF00001DD761E36B2002ECED162B6002005B0AD
:10400000F0BD03490020087562B6012005B0F0BD7F
:104010006000030010B50DF0E7F810BD1249087AF2
:10402000032820D001281ED0C87800281BD110B545
:1040300003F0E4FA00220D490F2801D04A7010BDA8
:104040004878401CC0B248700328F8D14A7008482C
:10405000522101705321417054218170FE200321AF
:104060000904087210BD7047BE4F0100E44701000B
:10407000F07F01000E49087A032817D0012815D0D7
:10408000C878002812D10B48007800280ED010B54F
:104090000948FFF766FF04460848FFF762FF9C2CBB
:1040A00003D0252801D000F037FC10BD7047000078
:1040B000BE4F01007150010028C00300B4C10300CD
:1040C0007047000010B50A490020087303F0CEFACB
:1040D000012807D0074A41201070074908700220C4
:1040E0001077087778210548FCF7F2F910BD000039
:1040F000800003008011030080130300ECDF010047
:1041000010B500F003FC074C0020A07106480F21F9
:10411000C174E0780F2804D10EF01AFAE0780F2865
:10412000FAD010BDBE4F0100DE4F01000023002871
:1041300011D930B4084D094CE97C0A5D0021002AF0
:1041400003D900BF491C9142FBD35B1C9BB2834245
:10415000F2D330BC70477047200003000D350100DA
:10416000F8B500240546002813D90A4E0A4FF17C01
:104170003846FCF7C2F901460020002903D900BFE8
:10418000401C8842FBD30EF0E3F9641CA4B2AC429D
:10419000EDD3F8BD20000300F0500000F8B533481F
:1041A000314E8478802003F091F90090042003F0D0
:1041B0008DF986462E480022C07E002816D92C494B
:1041C0008B7E0021002B0DD9282715467D43009FAB
:1041D000EF194D007D5FB54200DD2E46491CC9B286
:1041E0008B42F6D8521CD2B29042EAD82149CB7AFF
:1041F0008A7A190609141143B14234DB1E49497EFB
:10420000002930D1002600282DD960428446184864
:104210000023807E002820D9304628214843009979
:1042200047182420704371464218590078182A25EF
:10423000455FA54203DD555A2D19555207E06545E6
:1042400002DA555A2D1B01E0505A451955520848BB
:104250005B1C807EDBB29842E7D80548761CC07EA6
:10426000F6B2B042D3D8F8BDE0B1FFFFBE4F0100B7
:10427000004D0100075101006751010030B585B0C4
:10428000104B00255807104C01950295039004959A
:104290000090A17EE07E0822FCF7C4FA0B4800687B
:1042A000E17EA27E5143FCF736F9094900B208804D
:1042B0000A30152804D30748C17B002900D0C573F4
:1042C00005B030BDEA0A1410004D01008060030003
:1042D000FE4F0100DE4F010010B5104A2824537C28
:1042E0000F4A121860430F4C00194C00005F800207
:1042F0008B4209D9092189015118097C0A225143AD
:10430000FCF709F900B210BD132149015118097CCD
:104310000A225143FCF7FFF800B210BDA94F01007B
:10432000294D0100C08A0100F0B5022003F0CEF84B
:104330001F498646C87E0124012838D31D4884467B
:104340001B480121807E01282BD31B4809239B0198
:104350000219D01813235B01D71828226243724434
:1043600063465B7C8B420BD94D00535F067C7343E5
:104370000A267343DE17B60DF3189B1253530AE057
:104380004D00535F3E7C73430A267343DE17B60D20
:10439000F3189B125353064B491C9B7EC9B28B42A8
:1043A000DED20348641CC07EE4B2A042C8D2F0BD95
:1043B000004D0100A94F0100294D0100F8B5022070
:1043C00003F084F804001ED0FFF7AEFF0AF0F8FDFA
:1043D0000D480021057A002D15D90C4E0C4F4800D0
:1043E0008219112040011018837B427B2820424310
:1043F00010195B00C018D219D218491C408DC9B2DF
:1044000050858D42EBD8F8BD294F0100294D0100A0
:1044100020A60100F0B540480026807E85B0002827
:1044200072D03E480490807F002700286CD93C4819
:1044300003900C203B4978434418FF204430005D32
:104440003D220918520102918918097801291ED0CC
:1044500004291CD04500FF3433480134618F405B90
:10446000081A00B201903148A18F405B081A00B2CF
:10447000014600900198FDF715FD03994A7E0B7ED9
:104480001102194381420CD8FF26013612E0FF3495
:1044900001342549628F40000A52A28F16310A5218
:1044A0002CE0002903D00002FCF727F886B2102E7A
:1044B00000D21026019831B24843C217120E1018CC
:1044C000001202B200981F234843C117090E0818B2
:1044D00002999B01C9180012097B00B2012915D06D
:1044E0001149495B891861871049495B0818A08701
:1044F0000D48618F4153A18F1630415304987F1CA2
:10450000807FFFB2B84294D805B0F0BD0648405B4A
:1045100060870648405BEAE747510100D4EA0100A2
:104520004A51010034E90100345B01004A5B01009B
:1045300070B415490622897A144C51430B19403B3B
:104540005D8F50200A2D1BD3114AD17D967D090223
:1045500031430A398D4213D825880A2D10D38D4254
:104560000ED89B8F0A2B0BD3517E127E090211436A
:104570000A398B4204D862880A2A01D38A4200D9B8
:10458000002070BC70470000C4480100BC6F0100EF
:10459000004D010070B41948194D847A0020194A61
:1045A0000146002C0AD906234B43D35AAB4201D211
:1045B0001D460846491CC9B2A142F4D306214C430A
:1045C000A3184843115A1588801856886A1A403B28
:1045D0005C8F40889B8F351A611A181A52436D43BD
:1045E000494340435219081851005118814202D2E0
:1045F00070BC1620704770BC12207047C448010080
:1046000010270000BC6F010070B42449244D897A42
:10461000062461434C19403C2B88618F02468B4233
:1046200001D9591A00E0C91A6B88A48F89B2A34234
:1046300001D91B1B00E0E31A1A4C9BB2112801D0D0
:10464000222810D1657E267E2D0235436D089D42BD
:1046500000D90022002B06D064251E264D435E4360
:10466000B54200D90022232801D0242812D1880085
:104670000D18E07DA47D000220434000854200D259
:104680000022002906D0642043431E2041438B4270
:1046900000D9002270BC104670470000C4480100D9
:1046A000BC6F0100004D010007490622897A1420E1
:1046B0005143064A891840394B8F118896318B42F5
:1046C00000D2002070470000C4480100BC6F010008
:1046D0000D480E4A807A06235843801840381188C6
:1046E000438FC91A09B2FF239133C831994206D8C2
:1046F0005188808F081A00B2C830984201D9002032
:104700007047132070470000C4480100BC6F0100CF
:1047100007490622897A17205143064A89184039E9
:10472000498F12889631914200D9002070470000CD
:10473000C4480100BC6F0100F8B53349334C002771
:10474000897A25463E460091132818D01D2819D095
:1047500015281AD014281BD01E281CD017281DD0AD
:1047600011281ED022281CD023281AD0242818D083
:1047700027490878162817D0122815D01CE0FFF713
:10478000A7FF19E000F072F816E000F05BF813E004
:10479000FFF78AFF10E000F041F80DE0FFF7B8FFE7
:1047A0000AE0FFF731FF07E01A4A1278042A03D023
:1047B000FFF7F0FE16490870002822D0009900206B
:1047C000002917D9144B062102464A43995AB94287
:1047D00000D90F46A14200D20C46D1184988B142F7
:1047E00000D90E46A94200D20D46401C0099C0B225
:1047F0008842E8D33234A74204D93235AE4201D9D7
:104800000120F8BD0020F8BDC448010010270000B9
:104810006E4901003C6F0100BC6F01000749062290
:10482000897A1E205143064A891840394B8F1188D6
:1048300096318B4200D2002070470000C44801002E
:10484000BC6F010007490622897A15205143064AA8
:10485000891840394B8F118896318B4200D2002045
:1048600070470000C4480100BC6F0100F0B582B081
:104870001D2000901F48867A1F48019603884288B1
:1048800001209C461D4696461446012E19D9062144
:1048900007464F431849C95BA94201D90D4602E0BA
:1048A000994200D20B46144979184988A14201D98E
:1048B0000C4602E0914200D20A46401CC0B2864239
:1048C000E5D80D48324606235A4310184038428F27
:1048D000614696319632914208D8808F7146963063
:1048E0009631814202D8009802B0F0BD00200090BD
:1048F00002B0F0BDC4480100BC6F01007047000069
:10490000014901204873704771500100014900209E
:10491000487370477150010007480078002809D09B
:1049200010B500210548FFF71EFB05210448FFF7DD
:104930001AFB10BD7047000071500100C0D5030084
:10494000C1D50300F0B587B0002006905648807AA4
:10495000002875D0554908780190002870D0544A35
:104960003C20105EFF225F32904269DC51480078A3
:10497000002865D1019A50480090052A7ED8002071
:104980008446002A7ED94D48C27E0592807E0490DE
:1049900060461C214143454809180920C0010918F7
:1049A000087901285DD0059A90425AD048790128AB
:1049B00057D0049A904254D0CE798879321A521C3A
:1049C000D2B203924A7A097A9646531A5B1CDBB23A
:1049D000029300230C4605468A4214D386420ED326
:1049E0002822374F4A43D7194200BA5E9A4202DD65
:1049F0000C4605461346401CC0B28642F4D2491C00
:104A0000C9B28E45EAD20398012805D0042828D3DC
:104A10000298012815D024E00298042821D32820E8
:104A200044432748690020184018014640393E2277
:104A30008A5E642A15DA0221415E64291BDB10E0DC
:104A40002BE0282044431E486900201840180146E6
:104A5000403918228A5E642A03DA2821415E6429DB
:104A600009DB6046401CC0B28446019860458FD87F
:104A70000698002806D005210E4801E00FE001E06D
:104A8000017703E00B48007F002808D00949087F20
:104A9000401E087700980121017207B0F0BD00990F
:104AA0000020087207B0F0BD27520100A06001008D
:104AB00074F00100E0480100FE4F0100004D0100CC
:104AC00020A60100F0B58FB000251621FA48FBF7AB
:104AD00001FDFA480D90FA480B90FA48002407901F
:104AE000F94E00213078002811D9F84B0C224A43A6
:104AF000D2182032D27DA24205D10C225143C918CE
:104B00002031897D04E0491CC9B28842EED8FF21DA
:104B100088427DD91C225143EB4A0A268A18092172
:104B2000C90151180A7906924A7903920A7B0992BF
:104B30004A7B08928E5FE649620051180A4662324B
:104B4000537E177E1B061B143B43B34202DA1676D4
:104B5000330A537680314A7C0B7C12021A43234677
:104B60001C277B43D84F0C93DF190923DB01FB186B
:104B70009B8A9A4202D20B741A0A4A74079989795D
:104B8000814201D207998871182021464143D148BA
:104B900008180A90807B00283AD00A98C07B002829
:104BA00036D1069828214843CB4941180398400044
:104BB0000A5E962A05DD0D9A537C127C1D02154370
:104BC00007E03C2A02DD0A5A3C3A95B2322D00D267
:104BD00032250022BE4B0292049205925F78079B19
:104BE000DB799F4265D1039804282DD80220085E06
:104BF00029B288425CDD0027B90004A80818012109
:104C00000E900190781C0091C1B201232A4600E069
:104C100030E10390069800F0ADF902A9C8550120D3
:104C200000900E9903980191C1B200232A4606987C
:104C300000F0A0F902A9C95D401802A9C85503985F
:104C4000C7B2022FD8D39CE0A44A039F907EC31E14
:104C5000BB422DD84000085E29B2884228DD0027DB
:104C6000B90004A808180390019001219B48009105
:104C7000807E0123C01BC1B22A46069800F07AF953
:104C800002A9C85501200090039994480191807EA3
:104C90000023C01BC1B22A46069800F06BF902A996
:104CA000C95D411802A8C1557F1CFFB2022FD7D39E
:104CB00067E0069904292DD8874941182820085E05
:104CC00029B288425DDD0027B90004A808180E90BB
:104CD00001900021781C00910690C0B201232A4661
:104CE000039900F047F902A9C85500200E990191D7
:104CF000009006980023C0B22A46039900F03AF9C2
:104D000002A9C95D401802A9C8550698C7B2022F6A
:104D1000DAD336E07149069FC97ECB1EBB4230D83C
:104D2000282779436C4FC919085E29B2884228DDCB
:104D30000027B90004A808180690019000216748D0
:104D40000091C07E0123C01BC0B22A46039900F027
:104D500011F902A9C8550020009006995F480191F9
:104D6000C07E0023C01BC0B22A46039900F002F99E
:104D700002A9C95D411802A8C1557F1CFFB2022FCC
:104D8000D7D36946487A0090097A884272D80A983F
:104D9000837E580736D50898022802D011280BD0F8
:104DA00014E00998282250434B4A82180220105ED2
:104DB000301A0A286CDC09E0099828225043464A38
:104DC00082182420105E301A0A2861DC0998022813
:104DD00002D01F280AD015E0089842003E48121859
:104DE0002820105E301A0A2852DC0BE00898420096
:104DF000394812180520000212180020105E301ADF
:104E00000A2845DC364A0C98105EB04240DC304837
:104E100042780798C07982420B9801D1007C00E06B
:104E2000C07C2D4A2A26965F2AB2964217DC2B4E6A
:104E30002827F67E7E43284FF619284FB446BF7EBA
:104E40007F00F65F96420ADC234EBF192826BE5F1C
:104E5000964204DC66460227F75F974201DD401E5A
:104E6000C0B25A0701D41A0705D5052910D912492D
:104E7000012008550CE0814203D90F48012101555A
:104E800006E04A1C824203D90098401C8142F4D8B3
:104E9000641CE4B20B2C00D222E600240D4D114F0D
:104EA00001260548005D00281ED0182060434019E7
:104EB000C67386731EE00000845501003A48010065
:104EC00039480100B9480100A060010034E901003F
:104ED000194801009452010020A60100004D010074
:104EE000A86B0100DE690100182060434019C07BF7
:104EF000002831D064221146204603F08FFF00289D
:104F000005D11A4841780798C079814216D01820F7
:104F100060434019817C032926D0008964281BD373
:104F200013494A7E0B7E110219436439814213DB17
:104F30000E4841780798C07981420DD0204614214F
:104F400048433E54C0194178314341701820002134
:104F500060434019C1738173641CE4B20B2CA0D36D
:104F60000CF090FD0FB0F0BD8089D7E71948010023
:104F7000004D0100F0B59E46944628220346534357
:104F8000254F4A00DB199B5E624612B2002494460C
:104F9000059E069D63453DDD282302465A43D219EE
:104FA0004B00D25E7346002B15D0002E09D000288E
:104FB00030D0401E641C2B68C0B29A18E4B22A603C
:104FC00021E0002926D0491E641C2B68C9B29A181A
:104FD000E4B22A6017E0114B002E0AD0DB7E834238
:104FE00018D3401C641C2B68C0B29A18E4B22A6023
:104FF00009E09B7E8B420DD3491C641C2B68C9B20F
:105000009A18E4B22A6028224243D2194B00D25E99
:105010006245C1DC2046F0BD20A60100004D010024
:10502000F0B5FF4884B0C47906F0BAFBFD4DFE48E8
:10503000EA7801900021FD480290002A09D000780A
:10504000029A401CC0B21070032805D9019841761D
:1050500002E0019A012050760020401CC0B20B28CB
:10506000FBD3F34884220023544320180390F14FCC
:10507000F14CF24800901820F14958434218907CB6
:10508000012808D0042870D000286FD002286ED0E4
:1050900003286CD082E2EB4D00986978C079814298
:1050A0000AD1580041190846002662300676467635
:1050B0001E300674467407E0590001204919400269
:1050C00062310876000A4876907E410701D40007D5
:1050D0000AD5D088508110899081012090730020DA
:1050E000D949D0765E008853184604F039F9002873
:1050F00010D0D088508110899081012090730020B9
:10510000D249D0765E008853907E01090901D048CB
:10511000491CC154907EC10701D181074AD50021A5
:105120009173D6885681118991818C46C9495A005C
:105130008E52C94E6146B15200996A78C9798A4245
:1051400016D10022C54D0126C148805CC10706D199
:10515000002805D1104604F003F9002800D0AE5411
:10516000521CD2B20B2AEFD318E213E0B9E0D0E020
:10517000C00701D0112100E02121B84AB44E00201F
:10518000355C8D4201D101251554401CC0B20B285D
:10519000F6D303E2907B002804D00198407E0028DB
:1051A00008D108E0019901204876029A0021117087
:1051B0009C49C870F2E1907E01077DD440071DD55F
:1051C000A048C17C857C080228439F495D00495B5B
:1051D000814271D2A148C05C00286DD1D07B0028EB
:1051E0006AD118461425684301219D4DD176295472
:1051F00000219173042140198174CFE1914D0098F1
:105200006978C079814245D09448C05C002864D157
:10521000D07B002861D18D485900405A797A3D7A77
:1052200009022943884203D28949C95CC9061DD4B1
:10523000617B257B09022943884203D28449C95CEA
:10524000890613D4797D3D7D09022943884203D222
:105250007F49C95C490609D4617E257E090229433C
:1052600088423AD27A48C05CC00936D07D48C05CDA
:1052700000280BD11846142568430121784DD176BA
:10528000295400219173042140198174704804212C
:10529000C15422E0184604F063F800281DD06A4883
:1052A0005900415AE87CAD7C00022843814214D267
:1052B000D07B002811D100E0F2E06848C05C0028F3
:1052C0000BD11846142568430121654DD176295428
:1052D0000021917304214019817460490020C85451
:1052E0005CE10020584D90735900685216356852A1
:1052F0001635E8540B35E854D0731A4614256A4322
:10530000574D56197070A854524A50521632505286
:1053100044E1917B00293DD019460C26039D714341
:105320006D18152189016918097E012932D1D588A6
:1053300051898D4201D9691A00E0491B1689958966
:1053400089B2AE4201D9751B00E0AD1BADB2A942D6
:1053500000D82946032800D100213A48457D067D22
:105360002802D57B3043002D01D08004000C8142FF
:1053700010D93C48C05C00280CD101219174907375
:10538000D073184614256843354D29544019457883
:105390000D434570907E410701D4000701D55800A8
:1053A00075E0184603F0DCFF002874D0907B0028DD
:1053B00076D0264D5800295A491C89B229521635F3
:1053C000ED5CAC46ED0762D07D7A3E7A2D02354326
:1053D000A94202D36546ED0608D4657B267B2D02E3
:1053E0003543A94208D36546AD0605D565462D0966
:1053F000174E2D01AD1CF5547D7D3E7D2D023543AC
:10540000A94203D3124DED5C6D062ED4657E267E37
:105410002D023543A9422ED30D49C95CC90923E0A9
:10542000B4F00100E04801007948010000490100A2
:1054300034E90100594801005B480100B948010006
:105440009452010019480100D4540100EA540100AB
:1054500000550100E05F0100F65F01000B550100FF
:10546000DE6901008455010005D05049CD5C2D094D
:105470002D012D1DCD544D49CD5CAD0707D54C4DAB
:10548000ED5C002D03D14B4DED5C002D09D04A4D54
:10549000295A491C2952907E4849C50719D116E05E
:1054A00064E0002595730425CD54194614267143F4
:1054B000434E0125755489194E782E434E709574CC
:1054C0004049D5880D52404912890A5266E080074A
:1054D00064D53E4845780098C07985425ED1907B7E
:1054E00000285BD1D07B002858D10E46384958009F
:1054F000D588095A691A1589364A09B2105A281AE4
:1055000002B20020142901DD102003E01425E94235
:1055100000DA0820142A01DD042103E01421CA4224
:1055200001DA022108430A2821D00C2804D01228CD
:1055300002D0142832D11AE0FF250021F5350122CE
:1055400018200E4646431D483018C67B002E09D150
:10555000867C002E06D0867B002E03D0C688AE4205
:1055600000D9C273491CC9B20B29E9D316E0002146
:1055700001253246182048438018C67B002E09D1E9
:10558000867C002E06D0867B002E03D0C688C82ECF
:1055900000D2C573491CC9B20B29EBD35B1CDBB22B
:1055A0000B2B00D267E504B0F0BD000000550100F0
:1055B0000B55010084550100D454010094520100A0
:1055C000DE6901002C550100425501001948010017
:1055D000E05F0100F65F01001C214843184970B5E7
:1055E00041180920C0010818047940792821154A7A
:1055F00061438E184500705F1C2148431249884260
:1056000003DD6421FAF787FF00E03C2000B21F2C85
:1056100008D97219403A1821515EB4290CDC814234
:105620000ADC0BE0012C09D108494A192821515EF6
:10563000A02901DC814201DD012070BD002070BD88
:10564000A060010020A60100D317000048A60100B9
:105650000249002800D03F2008757047A050030081
:10566000044805490078C00040180449C079C8744E
:1056700070470000B84B0100CC350100200003004A
:1056800003200004407C012807D004480449007826
:10569000C000401803494078C8747047B84B0100F7
:1056A000CC3501002000030006480078002807D010
:1056B00010B5FEF7C1F80CF02BFF09F0FFF810BD94
:1056C000704700007F500100002808D010B5044941
:1056D00000200874FBF770F908F0EEFF10BD70476A
:1056E0004050030070B5264D2C8AA0070BD52548E5
:1056F00042780021002A00D041702348027B002A12
:1057000001D001734173214EE0070CD0717830460F
:105710008078002917D000281FD00AF09BFA80213A
:105720001B480AF0E3FBA00629D57078002826D094
:10573000194E184834880168202C11D8A88A2022D4
:105740009043A8820DE0002804D00AF05DFC0AF026
:105750005DFCE8E70AF059FCF9E70AF0C5FBDEE773
:1057600020240E4D0E4A2888091810182246FAF7F0
:1057700049FE3088001B308028880019288070BDC1
:1057800060800300F4470100DE4F0100164801006D
:1057900000CC01000C480100084801000A48010043
:1057A00000C001000648012181740648827B002A5E
:1057B00004D1C079002801D10348817070470000EE
:1057C000DE4F0100BE4F0100F447010070470000AA
:1057D00010B419225203094B906B191A0848C17072
:1057E0000C0A04710C0C4471090E817100201063C5
:1057F000536390630120106310BC7047A0860100C2
:105800008A5201007047000001480121417470472D
:10581000DE4F0100F8B50BF067FE35210903C87CA7
:10582000264B80071A88800F521C1A80244A0123B5
:105830005371244A244E13747478012C02D1727A65
:10584000521C7272214A0027957B012D04D0022D33
:1058500002D0012C1CD10FE0C40705D01773887C3F
:1058600010221043887426E0800724D51373887CA7
:105870002022104388741EE015480078002807D0C5
:10588000747A1448052C07D20478012C04D012E055
:10589000107B584010730EE0077077728D7C107B80
:1058A000102426468640B5438D74584010738A7C78
:1058B000844022438A7440BFF8BD00000A490100B9
:1058C000F4470100DE4F010075520100BE4F010098
:1058D00090490100914901000948017800290ED042
:1058E000407B00280BD007494878401CC0B2487064
:1058F000642804D3044A0120507000204870704787
:1059000071500100BD4701008A5201000749087823
:10591000401C08700648817B032905D1C079002806
:1059200002D104490120887070470000BD47010082
:10593000BE4F0100F4470100704770477047704741
:105940007047704701484169C06870478000030094
:10595000F1B58EB0FE480490007D002873D0049805
:10596000807D052802D9049805218175F948C179FF
:105970000498807D022866D3401E86B2F648C37D17
:10598000827D1B0213430893427E047E130223434D
:1059900007938422F14B00245143C9180B91F0491D
:1059A0000A91F0490991F049089B059119B2079BAA
:1059B000069119B201911820EC4960434518E87E20
:1059C000002802D00020EA4901E3A87B002802D188
:1059D000E87B002802D0FF21E54838E1A87C0128B7
:1059E00006D0022822D0032820D0042875D0EFE268
:1059F00004990020897D8C4600290ED9EF882D89D5
:105A0000A20003462C214B43DA49401C59188F52FF
:105A10008918C0B24D808445F3D8D7490020085575
:105A2000E8390855D54901220A55CFE20C220B98D6
:105A300062438218152080011018007E012803D0CF
:105A4000022836D0C4E2C8E20E98002807D1CC481C
:105A5000807B012803D10598007A002826D104997B
:105A600000208B7D591E10D00F46A1008C460146A8
:105A70002C225143BF4A401C891861448A8D0A80F8
:105A8000CA8DC0B24A808742F1D82C2031464143AA
:105A9000B848EA880818A100425240182A89B74934
:105AA0004280085D984201D2401C08550020B2494E
:105AB0008DE2AF49085DFF2842D0B04A135D049AD9
:105AC000927D93423CD3012808D002287ED0AA4878
:105AD000005D0090002834D068E06DE20220085597
